{
  "contractName": "TesouroDireto",
  "abi": [
    {
      "inputs": [
        {
          "internalType": "string",
          "name": "name",
          "type": "string"
        },
        {
          "internalType": "string",
          "name": "symbol",
          "type": "string"
        },
        {
          "internalType": "address",
          "name": "initialOwner",
          "type": "address"
        }
      ],
      "stateMutability": "nonpayable",
      "type": "constructor"
    },
    {
      "inputs": [
        {
          "internalType": "address",
          "name": "spender",
          "type": "address"
        },
        {
          "internalType": "uint256",
          "name": "allowance",
          "type": "uint256"
        },
        {
          "internalType": "uint256",
          "name": "needed",
          "type": "uint256"
        }
      ],
      "name": "ERC20InsufficientAllowance",
      "type": "error"
    },
    {
      "inputs": [
        {
          "internalType": "address",
          "name": "sender",
          "type": "address"
        },
        {
          "internalType": "uint256",
          "name": "balance",
          "type": "uint256"
        },
        {
          "internalType": "uint256",
          "name": "needed",
          "type": "uint256"
        }
      ],
      "name": "ERC20InsufficientBalance",
      "type": "error"
    },
    {
      "inputs": [
        {
          "internalType": "address",
          "name": "approver",
          "type": "address"
        }
      ],
      "name": "ERC20InvalidApprover",
      "type": "error"
    },
    {
      "inputs": [
        {
          "internalType": "address",
          "name": "receiver",
          "type": "address"
        }
      ],
      "name": "ERC20InvalidReceiver",
      "type": "error"
    },
    {
      "inputs": [
        {
          "internalType": "address",
          "name": "sender",
          "type": "address"
        }
      ],
      "name": "ERC20InvalidSender",
      "type": "error"
    },
    {
      "inputs": [
        {
          "internalType": "address",
          "name": "spender",
          "type": "address"
        }
      ],
      "name": "ERC20InvalidSpender",
      "type": "error"
    },
    {
      "inputs": [
        {
          "internalType": "address",
          "name": "owner",
          "type": "address"
        }
      ],
      "name": "OwnableInvalidOwner",
      "type": "error"
    },
    {
      "inputs": [
        {
          "internalType": "address",
          "name": "account",
          "type": "address"
        }
      ],
      "name": "OwnableUnauthorizedAccount",
      "type": "error"
    },
    {
      "anonymous": false,
      "inputs": [
        {
          "indexed": true,
          "internalType": "address",
          "name": "owner",
          "type": "address"
        },
        {
          "indexed": true,
          "internalType": "address",
          "name": "spender",
          "type": "address"
        },
        {
          "indexed": false,
          "internalType": "uint256",
          "name": "value",
          "type": "uint256"
        }
      ],
      "name": "Approval",
      "type": "event"
    },
    {
      "anonymous": false,
      "inputs": [
        {
          "indexed": true,
          "internalType": "address",
          "name": "previousOwner",
          "type": "address"
        },
        {
          "indexed": true,
          "internalType": "address",
          "name": "newOwner",
          "type": "address"
        }
      ],
      "name": "OwnershipTransferred",
      "type": "event"
    },
    {
      "anonymous": false,
      "inputs": [
        {
          "indexed": true,
          "internalType": "uint256",
          "name": "idTitulo",
          "type": "uint256"
        },
        {
          "components": [
            {
              "internalType": "uint256",
              "name": "id",
              "type": "uint256"
            },
            {
              "internalType": "uint256",
              "name": "idExterno",
              "type": "uint256"
            },
            {
              "internalType": "string",
              "name": "nome",
              "type": "string"
            },
            {
              "internalType": "uint256",
              "name": "dataVencimento",
              "type": "uint256"
            },
            {
              "internalType": "uint256",
              "name": "rentabilidadeAnual",
              "type": "uint256"
            },
            {
              "internalType": "uint256",
              "name": "valorNominal",
              "type": "uint256"
            },
            {
              "internalType": "uint256",
              "name": "taxaB3",
              "type": "uint256"
            },
            {
              "internalType": "uint256",
              "name": "aliquotaIR",
              "type": "uint256"
            },
            {
              "internalType": "bool",
              "name": "isentoIOF",
              "type": "bool"
            }
          ],
          "indexed": false,
          "internalType": "struct TesouroDireto.DetalhesTitulo",
          "name": "detalhes",
          "type": "tuple"
        }
      ],
      "name": "TituloCriado",
      "type": "event"
    },
    {
      "anonymous": false,
      "inputs": [
        {
          "indexed": true,
          "internalType": "address",
          "name": "detentor",
          "type": "address"
        },
        {
          "indexed": false,
          "internalType": "uint256",
          "name": "idTitulo",
          "type": "uint256"
        },
        {
          "indexed": false,
          "internalType": "uint256",
          "name": "quantidade",
          "type": "uint256"
        }
      ],
      "name": "TituloEmitido",
      "type": "event"
    },
    {
      "anonymous": false,
      "inputs": [
        {
          "indexed": true,
          "internalType": "uint256",
          "name": "idTitulo",
          "type": "uint256"
        },
        {
          "indexed": true,
          "internalType": "address",
          "name": "detentor",
          "type": "address"
        },
        {
          "indexed": false,
          "internalType": "uint256",
          "name": "quantidade",
          "type": "uint256"
        },
        {
          "indexed": false,
          "internalType": "uint256",
          "name": "valorPago",
          "type": "uint256"
        }
      ],
      "name": "TituloResgatado",
      "type": "event"
    },
    {
      "anonymous": false,
      "inputs": [
        {
          "indexed": true,
          "internalType": "address",
          "name": "detentorOrigem",
          "type": "address"
        },
        {
          "indexed": true,
          "internalType": "address",
          "name": "detentorDestino",
          "type": "address"
        },
        {
          "indexed": false,
          "internalType": "uint256",
          "name": "idTitulo",
          "type": "uint256"
        },
        {
          "indexed": false,
          "internalType": "uint256",
          "name": "quantidade",
          "type": "uint256"
        }
      ],
      "name": "TituloTransferido",
      "type": "event"
    },
    {
      "anonymous": false,
      "inputs": [
        {
          "indexed": true,
          "internalType": "address",
          "name": "from",
          "type": "address"
        },
        {
          "indexed": true,
          "internalType": "address",
          "name": "to",
          "type": "address"
        },
        {
          "indexed": false,
          "internalType": "uint256",
          "name": "value",
          "type": "uint256"
        }
      ],
      "name": "Transfer",
      "type": "event"
    },
    {
      "inputs": [
        {
          "internalType": "address",
          "name": "owner",
          "type": "address"
        },
        {
          "internalType": "address",
          "name": "spender",
          "type": "address"
        }
      ],
      "name": "allowance",
      "outputs": [
        {
          "internalType": "uint256",
          "name": "",
          "type": "uint256"
        }
      ],
      "stateMutability": "view",
      "type": "function"
    },
    {
      "inputs": [
        {
          "internalType": "address",
          "name": "spender",
          "type": "address"
        },
        {
          "internalType": "uint256",
          "name": "value",
          "type": "uint256"
        }
      ],
      "name": "approve",
      "outputs": [
        {
          "internalType": "bool",
          "name": "",
          "type": "bool"
        }
      ],
      "stateMutability": "nonpayable",
      "type": "function"
    },
    {
      "inputs": [
        {
          "internalType": "address",
          "name": "account",
          "type": "address"
        }
      ],
      "name": "balanceOf",
      "outputs": [
        {
          "internalType": "uint256",
          "name": "",
          "type": "uint256"
        }
      ],
      "stateMutability": "view",
      "type": "function"
    },
    {
      "inputs": [],
      "name": "decimals",
      "outputs": [
        {
          "internalType": "uint8",
          "name": "",
          "type": "uint8"
        }
      ],
      "stateMutability": "view",
      "type": "function"
    },
    {
      "inputs": [
        {
          "internalType": "uint256",
          "name": "",
          "type": "uint256"
        }
      ],
      "name": "detalhesTitulos",
      "outputs": [
        {
          "internalType": "uint256",
          "name": "id",
          "type": "uint256"
        },
        {
          "internalType": "uint256",
          "name": "idExterno",
          "type": "uint256"
        },
        {
          "internalType": "string",
          "name": "nome",
          "type": "string"
        },
        {
          "internalType": "uint256",
          "name": "dataVencimento",
          "type": "uint256"
        },
        {
          "internalType": "uint256",
          "name": "rentabilidadeAnual",
          "type": "uint256"
        },
        {
          "internalType": "uint256",
          "name": "valorNominal",
          "type": "uint256"
        },
        {
          "internalType": "uint256",
          "name": "taxaB3",
          "type": "uint256"
        },
        {
          "internalType": "uint256",
          "name": "aliquotaIR",
          "type": "uint256"
        },
        {
          "internalType": "bool",
          "name": "isentoIOF",
          "type": "bool"
        }
      ],
      "stateMutability": "view",
      "type": "function"
    },
    {
      "inputs": [],
      "name": "name",
      "outputs": [
        {
          "internalType": "string",
          "name": "",
          "type": "string"
        }
      ],
      "stateMutability": "view",
      "type": "function"
    },
    {
      "inputs": [],
      "name": "owner",
      "outputs": [
        {
          "internalType": "address",
          "name": "",
          "type": "address"
        }
      ],
      "stateMutability": "view",
      "type": "function"
    },
    {
      "inputs": [],
      "name": "renounceOwnership",
      "outputs": [],
      "stateMutability": "nonpayable",
      "type": "function"
    },
    {
      "inputs": [],
      "name": "symbol",
      "outputs": [
        {
          "internalType": "string",
          "name": "",
          "type": "string"
        }
      ],
      "stateMutability": "view",
      "type": "function"
    },
    {
      "inputs": [
        {
          "internalType": "address",
          "name": "",
          "type": "address"
        },
        {
          "internalType": "uint256",
          "name": "",
          "type": "uint256"
        }
      ],
      "name": "titulosDetentor",
      "outputs": [
        {
          "internalType": "uint256",
          "name": "",
          "type": "uint256"
        }
      ],
      "stateMutability": "view",
      "type": "function"
    },
    {
      "inputs": [],
      "name": "totalSupply",
      "outputs": [
        {
          "internalType": "uint256",
          "name": "",
          "type": "uint256"
        }
      ],
      "stateMutability": "view",
      "type": "function"
    },
    {
      "inputs": [
        {
          "internalType": "address",
          "name": "to",
          "type": "address"
        },
        {
          "internalType": "uint256",
          "name": "value",
          "type": "uint256"
        }
      ],
      "name": "transfer",
      "outputs": [
        {
          "internalType": "bool",
          "name": "",
          "type": "bool"
        }
      ],
      "stateMutability": "nonpayable",
      "type": "function"
    },
    {
      "inputs": [
        {
          "internalType": "address",
          "name": "from",
          "type": "address"
        },
        {
          "internalType": "address",
          "name": "to",
          "type": "address"
        },
        {
          "internalType": "uint256",
          "name": "value",
          "type": "uint256"
        }
      ],
      "name": "transferFrom",
      "outputs": [
        {
          "internalType": "bool",
          "name": "",
          "type": "bool"
        }
      ],
      "stateMutability": "nonpayable",
      "type": "function"
    },
    {
      "inputs": [
        {
          "internalType": "address",
          "name": "newOwner",
          "type": "address"
        }
      ],
      "name": "transferOwnership",
      "outputs": [],
      "stateMutability": "nonpayable",
      "type": "function"
    },
    {
      "inputs": [
        {
          "internalType": "uint256",
          "name": "idExterno",
          "type": "uint256"
        },
        {
          "internalType": "string",
          "name": "nome",
          "type": "string"
        },
        {
          "internalType": "uint256",
          "name": "dataVencimento",
          "type": "uint256"
        },
        {
          "internalType": "uint256",
          "name": "rentabilidadeAnual",
          "type": "uint256"
        },
        {
          "internalType": "uint256",
          "name": "valorNominal",
          "type": "uint256"
        },
        {
          "internalType": "uint256",
          "name": "taxaB3",
          "type": "uint256"
        },
        {
          "internalType": "uint256",
          "name": "aliquotaIR",
          "type": "uint256"
        },
        {
          "internalType": "bool",
          "name": "isentoIOF",
          "type": "bool"
        }
      ],
      "name": "criarTitulo",
      "outputs": [],
      "stateMutability": "nonpayable",
      "type": "function"
    },
    {
      "inputs": [],
      "name": "getTotalTitulos",
      "outputs": [
        {
          "internalType": "uint256",
          "name": "",
          "type": "uint256"
        }
      ],
      "stateMutability": "view",
      "type": "function"
    },
    {
      "inputs": [
        {
          "internalType": "uint256",
          "name": "idTitulo",
          "type": "uint256"
        }
      ],
      "name": "getDetalhesTitulo",
      "outputs": [
        {
          "internalType": "uint256",
          "name": "id",
          "type": "uint256"
        },
        {
          "internalType": "uint256",
          "name": "idExterno",
          "type": "uint256"
        },
        {
          "internalType": "string",
          "name": "nome",
          "type": "string"
        },
        {
          "internalType": "uint256",
          "name": "dataVencimento",
          "type": "uint256"
        },
        {
          "internalType": "uint256",
          "name": "rentabilidadeAnual",
          "type": "uint256"
        },
        {
          "internalType": "uint256",
          "name": "valorNominal",
          "type": "uint256"
        },
        {
          "internalType": "uint256",
          "name": "taxaB3",
          "type": "uint256"
        },
        {
          "internalType": "uint256",
          "name": "aliquotaIR",
          "type": "uint256"
        },
        {
          "internalType": "bool",
          "name": "isentoIOF",
          "type": "bool"
        }
      ],
      "stateMutability": "view",
      "type": "function"
    },
    {
      "inputs": [
        {
          "internalType": "uint256",
          "name": "idTitulo",
          "type": "uint256"
        },
        {
          "internalType": "address",
          "name": "detentor",
          "type": "address"
        },
        {
          "internalType": "uint256",
          "name": "quantidade",
          "type": "uint256"
        }
      ],
      "name": "emitirTitulo",
      "outputs": [],
      "stateMutability": "nonpayable",
      "type": "function"
    },
    {
      "inputs": [
        {
          "internalType": "address",
          "name": "detentor",
          "type": "address"
        },
        {
          "internalType": "uint256",
          "name": "idTitulo",
          "type": "uint256"
        }
      ],
      "name": "getQuantidadeTitulos",
      "outputs": [
        {
          "internalType": "uint256",
          "name": "",
          "type": "uint256"
        }
      ],
      "stateMutability": "view",
      "type": "function"
    },
    {
      "inputs": [
        {
          "internalType": "address",
          "name": "detentorOrigem",
          "type": "address"
        },
        {
          "internalType": "address",
          "name": "detentorDestino",
          "type": "address"
        },
        {
          "internalType": "uint256",
          "name": "idTitulo",
          "type": "uint256"
        },
        {
          "internalType": "uint256",
          "name": "quantidade",
          "type": "uint256"
        }
      ],
      "name": "transferirTitulo",
      "outputs": [],
      "stateMutability": "nonpayable",
      "type": "function"
    },
    {
      "inputs": [
        {
          "internalType": "uint256",
          "name": "idTitulo",
          "type": "uint256"
        }
      ],
      "name": "resgatarTitulo",
      "outputs": [],
      "stateMutability": "nonpayable",
      "type": "function"
    }
  ],
  "bytecode": "0x60806040525f60065534801562000014575f80fd5b50604051620019c3380380620019c38339810160408190526200003791620001af565b8083836003620000488382620002c0565b506004620000578282620002c0565b5050506001600160a01b0381166200008857604051631e4fbdf760e01b81525f600482015260240160405180910390fd5b62000093816200009d565b505050506200038c565b600580546001600160a01b038381166001600160a01b0319831681179093556040519116919082907f8be0079c531659141344cd1fd0a4f28419497f9722a3daafe3b4186f6b6457e0905f90a35050565b634e487b7160e01b5f52604160045260245ffd5b5f82601f83011262000112575f80fd5b81516001600160401b03808211156200012f576200012f620000ee565b604051601f8301601f19908116603f011681019082821181831017156200015a576200015a620000ee565b816040528381526020925086602085880101111562000177575f80fd5b5f91505b838210156200019a57858201830151818301840152908201906200017b565b5f602085830101528094505050505092915050565b5f805f60608486031215620001c2575f80fd5b83516001600160401b0380821115620001d9575f80fd5b620001e78783880162000102565b94506020860151915080821115620001fd575f80fd5b506200020c8682870162000102565b604086015190935090506001600160a01b03811681146200022b575f80fd5b809150509250925092565b600181811c908216806200024b57607f821691505b6020821081036200026a57634e487b7160e01b5f52602260045260245ffd5b50919050565b601f821115620002bb57805f5260205f20601f840160051c81016020851015620002975750805b601f840160051c820191505b81811015620002b8575f8155600101620002a3565b50505b505050565b81516001600160401b03811115620002dc57620002dc620000ee565b620002f481620002ed845462000236565b8462000270565b602080601f8311600181146200032a575f8415620003125750858301515b5f19600386901b1c1916600185901b17855562000384565b5f85815260208120601f198616915b828110156200035a5788860151825594840194600190910190840162000339565b50858210156200037857878501515f19600388901b60f8161c191681555b505060018460011b0185555b505050505050565b611629806200039a5f395ff3fe608060405234801561000f575f80fd5b5060043610610132575f3560e01c8063654f294c116100b45780638da5cb5b116100795780638da5cb5b146102bc57806395d89b41146102d7578063a9059cbb146102df578063dd62ed3e146102f2578063e987b1751461032a578063f2fde38b1461033d575f80fd5b8063654f294c1461025e5780636fb731d11461026657806370a0823114610279578063715018a6146102a15780638caafed9146102a9575f80fd5b80632107be67116100fa5780632107be67146101ea57806323b872dd146101ff578063313ce567146102125780633f5974c914610221578063592048e114610234575f80fd5b806306fdde0314610136578063095ea7b314610154578063106a61401461017757806318160ddd146101ba5780631c82321d146101c2575b5f80fd5b61013e610350565b60405161014b91906110de565b60405180910390f35b610167610162366004611112565b6103e0565b604051901515815260200161014b565b6101ac610185366004611112565b6001600160a01b03919091165f908152600860209081526040808320938352929052205490565b60405190815260200161014b565b6002546101ac565b6101d56101d036600461113a565b6103f9565b60405161014b99989796959493929190611151565b6101fd6101f83660046111a7565b6104cb565b005b61016761020d3660046111e6565b610619565b6040516012815260200161014b565b6101d561022f36600461113a565b61063c565b6101ac610242366004611112565b600860209081525f928352604080842090915290825290205481565b6006546101ac565b6101fd61027436600461121f565b6107f8565b6101ac610287366004611241565b6001600160a01b03165f9081526020819052604090205490565b6101fd610935565b6101fd6102b736600461113a565b610948565b6005546040516001600160a01b03909116815260200161014b565b61013e610b4b565b6101676102ed366004611112565b610b5a565b6101ac61030036600461125a565b6001600160a01b039182165f90815260016020908152604080832093909416825291909152205490565b6101fd6103383660046112ae565b610b67565b6101fd61034b366004611241565b610c90565b60606003805461035f906113a1565b80601f016020809104026020016040519081016040528092919081815260200182805461038b906113a1565b80156103d65780601f106103ad576101008083540402835291602001916103d6565b820191905f5260205f20905b8154815290600101906020018083116103b957829003601f168201915b5050505050905090565b5f336103ed818585610ccd565b60019150505b92915050565b60076020525f908152604090208054600182015460028301805492939192610420906113a1565b80601f016020809104026020016040519081016040528092919081815260200182805461044c906113a1565b80156104975780601f1061046e57610100808354040283529160200191610497565b820191905f5260205f20905b81548152906001019060200180831161047a57829003601f168201915b5050506003840154600485015460058601546006870154600788015460089098015496979396929550909350919060ff1689565b336001600160a01b03851614806104ec57506005546001600160a01b031633145b61055b5760405162461bcd60e51b815260206004820152603560248201527f52656d6574656e7465206e616f2074656d207065726d697373616f2070617261604482015274103a3930b739b332b934b91037903a34ba3ab6379760591b60648201526084015b60405180910390fd5b6001600160a01b0384165f9081526008602090815260408083208584529091528120805483929061058d9084906113ed565b90915550506001600160a01b0383165f908152600860209081526040808320858452909152812080548392906105c4908490611400565b909155505060408051838152602081018390526001600160a01b0380861692908716917f5a67944bd8785fabd1ccd32f126ec1c1d1ca8eadcade871d19a9ae51105fa6ac91015b60405180910390a350505050565b5f33610626858285610cdf565b610631858585610d54565b506001949350505050565b5f8060605f805f805f805f8a11801561065757506006548a11155b61069c5760405162461bcd60e51b815260206004820152601660248201527524a2103232903a34ba3ab6379034b73b30b634b2379760511b6044820152606401610552565b5f60075f8c81526020019081526020015f20604051806101200160405290815f8201548152602001600182015481526020016002820180546106dd906113a1565b80601f0160208091040260200160405190810160405280929190818152602001828054610709906113a1565b80156107545780601f1061072b57610100808354040283529160200191610754565b820191905f5260205f20905b81548152906001019060200180831161073757829003601f168201915b505050505081526020016003820154815260200160048201548152602001600582015481526020016006820154815260200160078201548152602001600882015f9054906101000a900460ff1615151515815250509050805f015181602001518260400151836060015184608001518560a001518660c001518760e00151886101000151995099509950995099509950995099509950509193959799909294969850565b610800610db1565b5f8381526007602052604081205490036108515760405162461bcd60e51b81526020600482015260126024820152712a34ba3ab637903730b79032bc34b9ba329760711b6044820152606401610552565b5f81116108a05760405162461bcd60e51b815260206004820181905260248201527f5175616e746964616465206465766520736572206d61696f722071756520302e6044820152606401610552565b6001600160a01b0382165f908152600860209081526040808320868452909152812080548392906108d2908490611400565b909155506108e290508282610dde565b6108ec8282610dde565b60408051848152602081018390526001600160a01b038416917f3beb70d103ce9d08193b61acfca20b9524a30c73b46132c919ef1f2c33e1da01910160405180910390a2505050565b61093d610db1565b6109465f610e16565b565b5f818152600760205260408120805490910361099b5760405162461bcd60e51b81526020600482015260126024820152712a34ba3ab637903730b79032bc34b9ba329760711b6044820152606401610552565b335f90815260086020908152604080832085845290915290205480610a125760405162461bcd60e51b815260206004820152602760248201527f446574656e746f72206e616f20706f7373756920746974756c6f73206465737460448201526632903a34b8379760c91b6064820152608401610552565b5f6127108360040154612710610a289190611400565b6005850154610a379085611413565b610a419190611413565b610a4b919061142a565b335f81815260086020908152604080832089845290915280822082905551929350909183156108fc0291849190818181858888f19350505050158015610a93573d5f803e3d5ffd5b506040805183815260208101839052339186917fc9339eca148dfb5d51525277dc6fc51311428aff0c88d730796758d2f2b11fe1910160405180910390a3335f9081526008602090815260408083208784529091529020545f03610b45575f8481526007602052604081208181556001810182905590610b166002830182611051565b505f600382018190556004820181905560058201819055600682018190556007820155600801805460ff191690555b50505050565b60606004805461035f906113a1565b5f336103ed818585610d54565b610b6f610db1565b60068054905f610b7e83611449565b9091555050604080516101208101825260065480825260208083018c81528385018c8152606085018c9052608085018b905260a085018a905260c0850189905260e085018890528615156101008601525f938452600790925293909120825181559251600184015551909182916002820190610bfa90826114ac565b50606082015160038201556080820151600482015560a0820151600582015560c082015160068083019190915560e08301516007830155610100909201516008909101805460ff1916911515919091179055546040517f2a8a3d48497f1e8b3de68fb8cfe19af014587c6255db5e568d2063cd7044275c90610c7d90849061156c565b60405180910390a2505050505050505050565b610c98610db1565b6001600160a01b038116610cc157604051631e4fbdf760e01b81525f6004820152602401610552565b610cca81610e16565b50565b610cda8383836001610e67565b505050565b6001600160a01b038381165f908152600160209081526040808320938616835292905220545f198114610b455781811015610d4657604051637dc7a0d960e11b81526001600160a01b03841660048201526024810182905260448101839052606401610552565b610b4584848484035f610e67565b6001600160a01b038316610d7d57604051634b637e8f60e11b81525f6004820152602401610552565b6001600160a01b038216610da65760405163ec442f0560e01b81525f6004820152602401610552565b610cda838383610f2b565b6005546001600160a01b031633146109465760405163118cdaa760e01b8152336004820152602401610552565b6001600160a01b038216610e075760405163ec442f0560e01b81525f6004820152602401610552565b610e125f8383610f2b565b5050565b600580546001600160a01b038381166001600160a01b0319831681179093556040519116919082907f8be0079c531659141344cd1fd0a4f28419497f9722a3daafe3b4186f6b6457e0905f90a35050565b6001600160a01b038416610e905760405163e602df0560e01b81525f6004820152602401610552565b6001600160a01b038316610eb957604051634a1406b160e11b81525f6004820152602401610552565b6001600160a01b038085165f9081526001602090815260408083209387168352929052208290558015610b4557826001600160a01b0316846001600160a01b03167f8c5be1e5ebec7d5bd14f71427d1e84f3dd0314c0f7b2291e5b200ac8c7c3b9258460405161060b91815260200190565b6001600160a01b038316610f55578060025f828254610f4a9190611400565b90915550610fc59050565b6001600160a01b0383165f9081526020819052604090205481811015610fa75760405163391434e360e21b81526001600160a01b03851660048201526024810182905260448101839052606401610552565b6001600160a01b0384165f9081526020819052604090209082900390555b6001600160a01b038216610fe157600280548290039055610fff565b6001600160a01b0382165f9081526020819052604090208054820190555b816001600160a01b0316836001600160a01b03167fddf252ad1be2c89b69c2b068fc378daa952ba7f163c4a11628f55a4df523b3ef8360405161104491815260200190565b60405180910390a3505050565b50805461105d906113a1565b5f825580601f1061106c575050565b601f0160209004905f5260205f2090810190610cca91905b80821115611097575f8155600101611084565b5090565b5f81518084525f5b818110156110bf576020818501810151868301820152016110a3565b505f602082860101526020601f19601f83011685010191505092915050565b602081525f6110f0602083018461109b565b9392505050565b80356001600160a01b038116811461110d575f80fd5b919050565b5f8060408385031215611123575f80fd5b61112c836110f7565b946020939093013593505050565b5f6020828403121561114a575f80fd5b5035919050565b5f6101208b83528a60208401528060408401526111708184018b61109b565b60608401999099525050608081019590955260a085019390935260c084019190915260e08301521515610100909101529392505050565b5f805f80608085870312156111ba575f80fd5b6111c3856110f7565b93506111d1602086016110f7565b93969395505050506040820135916060013590565b5f805f606084860312156111f8575f80fd5b611201846110f7565b925061120f602085016110f7565b9150604084013590509250925092565b5f805f60608486031215611231575f80fd5b8335925061120f602085016110f7565b5f60208284031215611251575f80fd5b6110f0826110f7565b5f806040838503121561126b575f80fd5b611274836110f7565b9150611282602084016110f7565b90509250929050565b634e487b7160e01b5f52604160045260245ffd5b8035801515811461110d575f80fd5b5f805f805f805f80610100898b0312156112c6575f80fd5b88359750602089013567ffffffffffffffff808211156112e4575f80fd5b818b0191508b601f8301126112f7575f80fd5b8135818111156113095761130961128b565b604051601f8201601f19908116603f011681019083821181831017156113315761133161128b565b816040528281528e6020848701011115611349575f80fd5b826020860160208301375f60208483010152809b50505050505060408901359550606089013594506080890135935060a0890135925060c0890135915061139260e08a0161129f565b90509295985092959890939650565b600181811c908216806113b557607f821691505b6020821081036113d357634e487b7160e01b5f52602260045260245ffd5b50919050565b634e487b7160e01b5f52601160045260245ffd5b818103818111156103f3576103f36113d9565b808201808211156103f3576103f36113d9565b80820281158282048414176103f3576103f36113d9565b5f8261144457634e487b7160e01b5f52601260045260245ffd5b500490565b5f6001820161145a5761145a6113d9565b5060010190565b601f821115610cda57805f5260205f20601f840160051c810160208510156114865750805b601f840160051c820191505b818110156114a5575f8155600101611492565b5050505050565b815167ffffffffffffffff8111156114c6576114c661128b565b6114da816114d484546113a1565b84611461565b602080601f83116001811461150d575f84156114f65750858301515b5f19600386901b1c1916600185901b178555611564565b5f85815260208120601f198616915b8281101561153b5788860151825594840194600190910190840161151c565b508582101561155857878501515f19600388901b60f8161c191681555b505060018460011b0185555b505050505050565b6020815281516020820152602082015160408201525f604083015161012080606085015261159e61014085018361109b565b915060608501516080850152608085015160a085015260a085015160c085015260c085015160e085015260e08501516101008181870152808701519150506115e98286018215159052565b509094935050505056fea264697066735822122011b98c29494f20c74b49ff726b5cc43930dffe01a6b1636adfc59fce42f237c664736f6c63430008170033",
  "immutableReferences": {},
  "source": "// SPDX-License-Identifier: MIT\r\npragma solidity ^0.8.7;\r\n\r\nimport \"@openzeppelin/contracts/token/ERC20/ERC20.sol\";\r\nimport \"@openzeppelin/contracts/access/Ownable.sol\";\r\n\r\ncontract TesouroDireto is ERC20, Ownable {\r\n\r\n    // O construtor foi atualizado para incluir os argumentos necessrios para o ERC20\r\n    // e para chamar o construtor do Ownable com o endereo do proprietrio\r\n    constructor(string memory name, string memory symbol, address initialOwner)\r\n        ERC20(name, symbol)\r\n        Ownable(initialOwner) /// Aqui voc passa o endereo do proprietrio\r\n    {\r\n        // Cdigo do construtor, se necessrio\r\n    }\r\n\r\n\r\n    /*****************************************/\r\n    /********* CRIAO DE TTULO *************/\r\n    /*****************************************/\r\n\r\n    // Estrutura para armazenar os detalhes de um ttulo\r\n    struct DetalhesTitulo {\r\n        uint256 id; // ID interno autoincrementado para cada ttulo\r\n        uint256 idExterno; // ID externo fornecido pelo usurio ou sistema externo\r\n        string nome; // Nome do ttulo\r\n        uint256 dataVencimento; // Data de vencimento do ttulo como timestamp\r\n        uint256 rentabilidadeAnual; // Rentabilidade anual em pontos base\r\n        uint256 valorNominal; // Valor do ttulo em centavos para evitar decimais\r\n        uint256 taxaB3; // Custo - Taxa da B3 em pontos base\r\n        uint256 aliquotaIR; // Custo - IR previsto sobre o rendimento em pontos base\r\n        bool isentoIOF; // Iseno de IOF aps 30 dias\r\n    }\r\n\r\n    // Evento emitido quando um novo ttulo  criado\r\n    event TituloCriado(uint256 indexed idTitulo, DetalhesTitulo detalhes);\r\n\r\n    // Varivel para manter o ltimo ID utilizado\r\n    uint256 private _ultimoId = 0; \r\n\r\n    // Funo para criar um novo ttulo, restrita ao dono do contrato\r\n    function criarTitulo(\r\n        uint256 idExterno,\r\n        string memory nome,\r\n        uint256 dataVencimento,\r\n        uint256 rentabilidadeAnual,\r\n        uint256 valorNominal,\r\n        uint256 taxaB3,\r\n        uint256 aliquotaIR,\r\n        bool isentoIOF\r\n    ) public onlyOwner \r\n    {\r\n        _ultimoId++;\r\n\r\n        DetalhesTitulo memory novoTitulo = DetalhesTitulo({\r\n            id: _ultimoId,\r\n            idExterno: idExterno,\r\n            nome: nome,\r\n            dataVencimento: dataVencimento,\r\n            rentabilidadeAnual: rentabilidadeAnual,\r\n            valorNominal: valorNominal,\r\n            taxaB3: taxaB3,\r\n            aliquotaIR: aliquotaIR,\r\n            isentoIOF: isentoIOF\r\n        });\r\n\r\n        detalhesTitulos[_ultimoId] = novoTitulo;\r\n\r\n        emit TituloCriado(_ultimoId, novoTitulo);\r\n    }\r\n\r\n\r\n\r\n    /*************************************************/\r\n    /********* NMERO DE TTULOS CRIADOS *************/\r\n    /*************************************************/\r\n\r\n    // Funo para obter o nmero total de ttulos emitidos\r\n    function getTotalTitulos() public view returns (uint256) \r\n    {\r\n        return _ultimoId;\r\n    }\r\n\r\n\r\n\r\n    /****************************************************/\r\n    /********* DETALHES DE UM TTULO CRIADO *************/\r\n    /****************************************************/\r\n\r\n    // Mapeamento de um ID de ttulo para seus detalhes\r\n    mapping(uint256 => DetalhesTitulo) public detalhesTitulos;\r\n\r\n    // Funo para visualizar os detalhes de um ttulo por ID\r\n    function getDetalhesTitulo(uint256 idTitulo) public view returns (\r\n        uint256 id,\r\n        uint256 idExterno,\r\n        string memory nome,\r\n        uint256 dataVencimento,\r\n        uint256 rentabilidadeAnual,\r\n        uint256 valorNominal,\r\n        uint256 taxaB3,\r\n        uint256 aliquotaIR,\r\n        bool isentoIOF\r\n    ) {\r\n        require(idTitulo > 0 && idTitulo <= _ultimoId, \"ID de titulo invalido.\");\r\n        DetalhesTitulo memory titulo = detalhesTitulos[idTitulo];\r\n        return (\r\n            titulo.id,\r\n            titulo.idExterno,\r\n            titulo.nome,\r\n            titulo.dataVencimento,\r\n            titulo.rentabilidadeAnual,\r\n            titulo.valorNominal,\r\n            titulo.taxaB3,\r\n            titulo.aliquotaIR,\r\n            titulo.isentoIOF\r\n        );\r\n    }\r\n\r\n\r\n    /***********************************************************/\r\n    /********* EMISSO DE TTULO PARA UM COMPRADOR *************/\r\n    /***********************************************************/\r\n\r\n    // Evento emitido quando um ttulo  emitido para um detentor\r\n    event TituloEmitido(address indexed detentor, uint256 idTitulo, uint256 quantidade);\r\n\r\n    // Mapeamento do endereo do detentor para a lista de IDs de ttulos que ele possui\r\n    mapping(address => mapping(uint256 => uint256)) public titulosDetentor;\r\n\r\n    // Funo para emitir um ttulo j criado para um detentor especfico com quantidade e valor fracionado\r\n    function emitirTitulo(\r\n        uint256 idTitulo,\r\n        address detentor,\r\n        uint256 quantidade\r\n    ) public onlyOwner {\r\n        require(detalhesTitulos[idTitulo].id != 0, \"Titulo nao existe.\");\r\n        require(quantidade > 0, \"Quantidade deve ser maior que 0.\");\r\n\r\n        // Adiciona a quantidade de ttulos ao registro do detentor\r\n        // Isso pode ser um novo mapeamento que associa o detentor e o ID do ttulo  quantidade detida\r\n        titulosDetentor[detentor][idTitulo] += quantidade;\r\n        _mint(detentor, quantidade);\r\n\r\n        _mint(detentor, quantidade);\r\n        emit TituloEmitido(detentor, idTitulo, quantidade);\r\n\r\n    }\r\n\r\n    /******************************************************/\r\n    /********* QTD DE TTULOS DE UM DETENTOR **************/\r\n    /******************************************************/\r\n\r\n    function getQuantidadeTitulos(address detentor, uint256 idTitulo) public view returns (uint256) {\r\n        return titulosDetentor[detentor][idTitulo];\r\n    }\r\n\r\n\r\n    /******************************************/\r\n    /********* TRANSFERIR TTULO **************/\r\n    /******************************************/\r\n\r\n    function transferirTitulo(\r\n    address detentorOrigem,\r\n    address detentorDestino,\r\n    uint256 idTitulo,\r\n    uint256 quantidade\r\n    ) public {\r\n        \r\n        require(msg.sender == detentorOrigem || msg.sender == owner(), \"Remetente nao tem permissao para transferir o titulo.\");\r\n\r\n        titulosDetentor[detentorOrigem][idTitulo] -= quantidade;\r\n        titulosDetentor[detentorDestino][idTitulo] += quantidade;\r\n\r\n        // Emitir evento de transferncia (opcional, mas recomendado)\r\n        emit TituloTransferido(detentorOrigem, detentorDestino, idTitulo, quantidade);\r\n    }\r\n\r\n    // Evento para registrar a transferncia de ttulos\r\n    event TituloTransferido(address indexed detentorOrigem, address indexed detentorDestino, uint256 idTitulo, uint256 quantidade);\r\n\r\n\r\n    \r\n\r\n    /******************************************/\r\n    /********* RESGATAR TTULO **************/\r\n    /******************************************/\r\n\r\n    function resgatarTitulo(uint256 idTitulo) public {\r\n\r\n        DetalhesTitulo storage titulo = detalhesTitulos[idTitulo];\r\n\r\n        require(titulo.id != 0, \"Titulo nao existe.\");\r\n        //require(block.timestamp >= titulo.dataVencimento, \"Titulo ainda nao venceu.\");\r\n        \r\n        uint256 quantidadeDetentor = titulosDetentor[msg.sender][idTitulo];\r\n        require(quantidadeDetentor > 0, \"Detentor nao possui titulos deste tipo.\");\r\n\r\n        // Calcula o valor total a ser pago com base na rentabilidade anual e no valor nominal\r\n        uint256 valorTotalPago = (quantidadeDetentor * titulo.valorNominal * (10000 + titulo.rentabilidadeAnual)) / 10000;\r\n\r\n        // Recolhe os ttulos da carteira do detentor\r\n        titulosDetentor[msg.sender][idTitulo] = 0;\r\n\r\n        // Envia BNB ao detentor (assumindo que o contrato tem saldo suficiente)\r\n        payable(msg.sender).transfer(valorTotalPago);\r\n\r\n        // Emitir evento de resgate do ttulo\r\n        emit TituloResgatado(idTitulo, msg.sender, quantidadeDetentor, valorTotalPago);\r\n\r\n        // Remove o ttulo da lista de ttulos ativos se todos foram resgatados\r\n        if (getQuantidadeTitulos(msg.sender, idTitulo) == 0) {\r\n            delete detalhesTitulos[idTitulo];\r\n        }\r\n\r\n    }\r\n\r\n    // Evento emitido quando um ttulo  resgatado e o pagamento  feito\r\n    event TituloResgatado(uint256 indexed idTitulo, address indexed detentor, uint256 quantidade, uint256 valorPago);\r\n\r\n}\r\n",
  "sourcePath": "C:\\laragon\\www\\hackathon-tesouro-nacional\\contracts\\TesouroDireto.sol",
  "compiler": {
    "name": "solc",
    "version": "0.8.23+commit.f704f362.Emscripten.clang"
  },
  "schemaVersion": "3.4.16",
  "updatedAt": "2023-11-22T22:45:48.817Z",
  "devdoc": {
    "errors": {
      "ERC20InsufficientAllowance(address,uint256,uint256)": [
        {
          "details": "Indicates a failure with the `spender`s `allowance`. Used in transfers.",
          "params": {
            "allowance": "Amount of tokens a `spender` is allowed to operate with.",
            "needed": "Minimum amount required to perform a transfer.",
            "spender": "Address that may be allowed to operate on tokens without being their owner."
          }
        }
      ],
      "ERC20InsufficientBalance(address,uint256,uint256)": [
        {
          "details": "Indicates an error related to the current `balance` of a `sender`. Used in transfers.",
          "params": {
            "balance": "Current balance for the interacting account.",
            "needed": "Minimum amount required to perform a transfer.",
            "sender": "Address whose tokens are being transferred."
          }
        }
      ],
      "ERC20InvalidApprover(address)": [
        {
          "details": "Indicates a failure with the `approver` of a token to be approved. Used in approvals.",
          "params": {
            "approver": "Address initiating an approval operation."
          }
        }
      ],
      "ERC20InvalidReceiver(address)": [
        {
          "details": "Indicates a failure with the token `receiver`. Used in transfers.",
          "params": {
            "receiver": "Address to which tokens are being transferred."
          }
        }
      ],
      "ERC20InvalidSender(address)": [
        {
          "details": "Indicates a failure with the token `sender`. Used in transfers.",
          "params": {
            "sender": "Address whose tokens are being transferred."
          }
        }
      ],
      "ERC20InvalidSpender(address)": [
        {
          "details": "Indicates a failure with the `spender` to be approved. Used in approvals.",
          "params": {
            "spender": "Address that may be allowed to operate on tokens without being their owner."
          }
        }
      ],
      "OwnableInvalidOwner(address)": [
        {
          "details": "The owner is not a valid owner account. (eg. `address(0)`)"
        }
      ],
      "OwnableUnauthorizedAccount(address)": [
        {
          "details": "The caller account is not authorized to perform an operation."
        }
      ]
    },
    "events": {
      "Approval(address,address,uint256)": {
        "details": "Emitted when the allowance of a `spender` for an `owner` is set by a call to {approve}. `value` is the new allowance."
      },
      "Transfer(address,address,uint256)": {
        "details": "Emitted when `value` tokens are moved from one account (`from`) to another (`to`). Note that `value` may be zero."
      }
    },
    "kind": "dev",
    "methods": {
      "allowance(address,address)": {
        "details": "See {IERC20-allowance}."
      },
      "approve(address,uint256)": {
        "details": "See {IERC20-approve}. NOTE: If `value` is the maximum `uint256`, the allowance is not updated on `transferFrom`. This is semantically equivalent to an infinite approval. Requirements: - `spender` cannot be the zero address."
      },
      "balanceOf(address)": {
        "details": "See {IERC20-balanceOf}."
      },
      "decimals()": {
        "details": "Returns the number of decimals used to get its user representation. For example, if `decimals` equals `2`, a balance of `505` tokens should be displayed to a user as `5.05` (`505 / 10 ** 2`). Tokens usually opt for a value of 18, imitating the relationship between Ether and Wei. This is the default value returned by this function, unless it's overridden. NOTE: This information is only used for _display_ purposes: it in no way affects any of the arithmetic of the contract, including {IERC20-balanceOf} and {IERC20-transfer}."
      },
      "name()": {
        "details": "Returns the name of the token."
      },
      "owner()": {
        "details": "Returns the address of the current owner."
      },
      "renounceOwnership()": {
        "details": "Leaves the contract without owner. It will not be possible to call `onlyOwner` functions. Can only be called by the current owner. NOTE: Renouncing ownership will leave the contract without an owner, thereby disabling any functionality that is only available to the owner."
      },
      "symbol()": {
        "details": "Returns the symbol of the token, usually a shorter version of the name."
      },
      "totalSupply()": {
        "details": "See {IERC20-totalSupply}."
      },
      "transfer(address,uint256)": {
        "details": "See {IERC20-transfer}. Requirements: - `to` cannot be the zero address. - the caller must have a balance of at least `value`."
      },
      "transferFrom(address,address,uint256)": {
        "details": "See {IERC20-transferFrom}. Emits an {Approval} event indicating the updated allowance. This is not required by the EIP. See the note at the beginning of {ERC20}. NOTE: Does not update the allowance if the current allowance is the maximum `uint256`. Requirements: - `from` and `to` cannot be the zero address. - `from` must have a balance of at least `value`. - the caller must have allowance for ``from``'s tokens of at least `value`."
      },
      "transferOwnership(address)": {
        "details": "Transfers ownership of the contract to a new account (`newOwner`). Can only be called by the current owner."
      }
    },
    "version": 1
  },
  "userdoc": {
    "kind": "user",
    "methods": {},
    "version": 1
  }
}