{
  "contractName": "TesouroDireto",
  "abi": [
    {
      "inputs": [
        {
          "internalType": "string",
          "name": "name",
          "type": "string"
        },
        {
          "internalType": "string",
          "name": "symbol",
          "type": "string"
        },
        {
          "internalType": "address",
          "name": "initialOwner",
          "type": "address"
        }
      ],
      "stateMutability": "nonpayable",
      "type": "constructor"
    },
    {
      "inputs": [
        {
          "internalType": "address",
          "name": "spender",
          "type": "address"
        },
        {
          "internalType": "uint256",
          "name": "allowance",
          "type": "uint256"
        },
        {
          "internalType": "uint256",
          "name": "needed",
          "type": "uint256"
        }
      ],
      "name": "ERC20InsufficientAllowance",
      "type": "error"
    },
    {
      "inputs": [
        {
          "internalType": "address",
          "name": "sender",
          "type": "address"
        },
        {
          "internalType": "uint256",
          "name": "balance",
          "type": "uint256"
        },
        {
          "internalType": "uint256",
          "name": "needed",
          "type": "uint256"
        }
      ],
      "name": "ERC20InsufficientBalance",
      "type": "error"
    },
    {
      "inputs": [
        {
          "internalType": "address",
          "name": "approver",
          "type": "address"
        }
      ],
      "name": "ERC20InvalidApprover",
      "type": "error"
    },
    {
      "inputs": [
        {
          "internalType": "address",
          "name": "receiver",
          "type": "address"
        }
      ],
      "name": "ERC20InvalidReceiver",
      "type": "error"
    },
    {
      "inputs": [
        {
          "internalType": "address",
          "name": "sender",
          "type": "address"
        }
      ],
      "name": "ERC20InvalidSender",
      "type": "error"
    },
    {
      "inputs": [
        {
          "internalType": "address",
          "name": "spender",
          "type": "address"
        }
      ],
      "name": "ERC20InvalidSpender",
      "type": "error"
    },
    {
      "inputs": [
        {
          "internalType": "address",
          "name": "owner",
          "type": "address"
        }
      ],
      "name": "OwnableInvalidOwner",
      "type": "error"
    },
    {
      "inputs": [
        {
          "internalType": "address",
          "name": "account",
          "type": "address"
        }
      ],
      "name": "OwnableUnauthorizedAccount",
      "type": "error"
    },
    {
      "anonymous": false,
      "inputs": [
        {
          "indexed": true,
          "internalType": "address",
          "name": "owner",
          "type": "address"
        },
        {
          "indexed": true,
          "internalType": "address",
          "name": "spender",
          "type": "address"
        },
        {
          "indexed": false,
          "internalType": "uint256",
          "name": "value",
          "type": "uint256"
        }
      ],
      "name": "Approval",
      "type": "event"
    },
    {
      "anonymous": false,
      "inputs": [
        {
          "indexed": false,
          "internalType": "address",
          "name": "carteira",
          "type": "address"
        },
        {
          "indexed": false,
          "internalType": "bool",
          "name": "autorizada",
          "type": "bool"
        }
      ],
      "name": "CarteiraAutorizadaAdicionada",
      "type": "event"
    },
    {
      "anonymous": false,
      "inputs": [
        {
          "indexed": true,
          "internalType": "uint256",
          "name": "idTitulo",
          "type": "uint256"
        },
        {
          "components": [
            {
              "internalType": "uint256",
              "name": "idExterno",
              "type": "uint256"
            },
            {
              "internalType": "string",
              "name": "dados_titulo",
              "type": "string"
            }
          ],
          "indexed": false,
          "internalType": "struct TesouroDireto.DetalhesTitulo",
          "name": "detalhes",
          "type": "tuple"
        }
      ],
      "name": "DetalhesTituloCriado",
      "type": "event"
    },
    {
      "anonymous": false,
      "inputs": [
        {
          "indexed": true,
          "internalType": "address",
          "name": "previousOwner",
          "type": "address"
        },
        {
          "indexed": true,
          "internalType": "address",
          "name": "newOwner",
          "type": "address"
        }
      ],
      "name": "OwnershipTransferred",
      "type": "event"
    },
    {
      "anonymous": false,
      "inputs": [
        {
          "indexed": true,
          "internalType": "address",
          "name": "detentor",
          "type": "address"
        },
        {
          "indexed": false,
          "internalType": "uint256",
          "name": "idTitulo",
          "type": "uint256"
        },
        {
          "indexed": false,
          "internalType": "uint256",
          "name": "quantidade",
          "type": "uint256"
        }
      ],
      "name": "TituloEmitido",
      "type": "event"
    },
    {
      "anonymous": false,
      "inputs": [
        {
          "indexed": true,
          "internalType": "address",
          "name": "detentorOrigem",
          "type": "address"
        },
        {
          "indexed": true,
          "internalType": "address",
          "name": "detentorDestino",
          "type": "address"
        },
        {
          "indexed": false,
          "internalType": "uint256",
          "name": "idTitulo",
          "type": "uint256"
        },
        {
          "indexed": false,
          "internalType": "uint256",
          "name": "quantidade",
          "type": "uint256"
        }
      ],
      "name": "TituloTransferido",
      "type": "event"
    },
    {
      "anonymous": false,
      "inputs": [
        {
          "indexed": true,
          "internalType": "address",
          "name": "from",
          "type": "address"
        },
        {
          "indexed": true,
          "internalType": "address",
          "name": "to",
          "type": "address"
        },
        {
          "indexed": false,
          "internalType": "uint256",
          "name": "value",
          "type": "uint256"
        }
      ],
      "name": "Transfer",
      "type": "event"
    },
    {
      "inputs": [
        {
          "internalType": "address",
          "name": "owner",
          "type": "address"
        },
        {
          "internalType": "address",
          "name": "spender",
          "type": "address"
        }
      ],
      "name": "allowance",
      "outputs": [
        {
          "internalType": "uint256",
          "name": "",
          "type": "uint256"
        }
      ],
      "stateMutability": "view",
      "type": "function"
    },
    {
      "inputs": [
        {
          "internalType": "address",
          "name": "spender",
          "type": "address"
        },
        {
          "internalType": "uint256",
          "name": "value",
          "type": "uint256"
        }
      ],
      "name": "approve",
      "outputs": [
        {
          "internalType": "bool",
          "name": "",
          "type": "bool"
        }
      ],
      "stateMutability": "nonpayable",
      "type": "function"
    },
    {
      "inputs": [
        {
          "internalType": "address",
          "name": "account",
          "type": "address"
        }
      ],
      "name": "balanceOf",
      "outputs": [
        {
          "internalType": "uint256",
          "name": "",
          "type": "uint256"
        }
      ],
      "stateMutability": "view",
      "type": "function"
    },
    {
      "inputs": [
        {
          "internalType": "address",
          "name": "",
          "type": "address"
        }
      ],
      "name": "carteirasAutorizadas",
      "outputs": [
        {
          "internalType": "bool",
          "name": "",
          "type": "bool"
        }
      ],
      "stateMutability": "view",
      "type": "function"
    },
    {
      "inputs": [
        {
          "internalType": "uint256",
          "name": "",
          "type": "uint256"
        }
      ],
      "name": "carteirasAutorizadasList",
      "outputs": [
        {
          "internalType": "address",
          "name": "carteira",
          "type": "address"
        },
        {
          "internalType": "bool",
          "name": "autorizada",
          "type": "bool"
        }
      ],
      "stateMutability": "view",
      "type": "function"
    },
    {
      "inputs": [],
      "name": "decimals",
      "outputs": [
        {
          "internalType": "uint8",
          "name": "",
          "type": "uint8"
        }
      ],
      "stateMutability": "view",
      "type": "function"
    },
    {
      "inputs": [
        {
          "internalType": "address",
          "name": "",
          "type": "address"
        }
      ],
      "name": "depositos",
      "outputs": [
        {
          "internalType": "uint256",
          "name": "",
          "type": "uint256"
        }
      ],
      "stateMutability": "view",
      "type": "function"
    },
    {
      "inputs": [
        {
          "internalType": "uint256",
          "name": "",
          "type": "uint256"
        }
      ],
      "name": "detalhesTitulos",
      "outputs": [
        {
          "internalType": "uint256",
          "name": "idExterno",
          "type": "uint256"
        },
        {
          "internalType": "string",
          "name": "dados_titulo",
          "type": "string"
        }
      ],
      "stateMutability": "view",
      "type": "function"
    },
    {
      "inputs": [],
      "name": "name",
      "outputs": [
        {
          "internalType": "string",
          "name": "",
          "type": "string"
        }
      ],
      "stateMutability": "view",
      "type": "function"
    },
    {
      "inputs": [],
      "name": "owner",
      "outputs": [
        {
          "internalType": "address",
          "name": "",
          "type": "address"
        }
      ],
      "stateMutability": "view",
      "type": "function"
    },
    {
      "inputs": [],
      "name": "renounceOwnership",
      "outputs": [],
      "stateMutability": "nonpayable",
      "type": "function"
    },
    {
      "inputs": [],
      "name": "symbol",
      "outputs": [
        {
          "internalType": "string",
          "name": "",
          "type": "string"
        }
      ],
      "stateMutability": "view",
      "type": "function"
    },
    {
      "inputs": [
        {
          "internalType": "address",
          "name": "",
          "type": "address"
        },
        {
          "internalType": "uint256",
          "name": "",
          "type": "uint256"
        }
      ],
      "name": "titulosDetentor",
      "outputs": [
        {
          "internalType": "uint256",
          "name": "",
          "type": "uint256"
        }
      ],
      "stateMutability": "view",
      "type": "function"
    },
    {
      "inputs": [],
      "name": "totalSupply",
      "outputs": [
        {
          "internalType": "uint256",
          "name": "",
          "type": "uint256"
        }
      ],
      "stateMutability": "view",
      "type": "function"
    },
    {
      "inputs": [
        {
          "internalType": "address",
          "name": "to",
          "type": "address"
        },
        {
          "internalType": "uint256",
          "name": "value",
          "type": "uint256"
        }
      ],
      "name": "transfer",
      "outputs": [
        {
          "internalType": "bool",
          "name": "",
          "type": "bool"
        }
      ],
      "stateMutability": "nonpayable",
      "type": "function"
    },
    {
      "inputs": [
        {
          "internalType": "address",
          "name": "from",
          "type": "address"
        },
        {
          "internalType": "address",
          "name": "to",
          "type": "address"
        },
        {
          "internalType": "uint256",
          "name": "value",
          "type": "uint256"
        }
      ],
      "name": "transferFrom",
      "outputs": [
        {
          "internalType": "bool",
          "name": "",
          "type": "bool"
        }
      ],
      "stateMutability": "nonpayable",
      "type": "function"
    },
    {
      "inputs": [
        {
          "internalType": "address",
          "name": "newOwner",
          "type": "address"
        }
      ],
      "name": "transferOwnership",
      "outputs": [],
      "stateMutability": "nonpayable",
      "type": "function"
    },
    {
      "inputs": [
        {
          "internalType": "uint256",
          "name": "idExterno",
          "type": "uint256"
        },
        {
          "internalType": "string",
          "name": "dados_titulo",
          "type": "string"
        }
      ],
      "name": "criarDetalhesTitulo",
      "outputs": [],
      "stateMutability": "nonpayable",
      "type": "function"
    },
    {
      "inputs": [
        {
          "internalType": "uint256",
          "name": "idTitulo",
          "type": "uint256"
        }
      ],
      "name": "getDetalhesTituloCriado",
      "outputs": [
        {
          "internalType": "uint256",
          "name": "idExterno",
          "type": "uint256"
        },
        {
          "internalType": "string",
          "name": "dados_titulo",
          "type": "string"
        }
      ],
      "stateMutability": "view",
      "type": "function"
    },
    {
      "inputs": [
        {
          "internalType": "address",
          "name": "carteira",
          "type": "address"
        },
        {
          "internalType": "bool",
          "name": "autorizada",
          "type": "bool"
        }
      ],
      "name": "setCarteiraAutorizada",
      "outputs": [],
      "stateMutability": "nonpayable",
      "type": "function"
    },
    {
      "inputs": [],
      "name": "getEnderecosAutorizados",
      "outputs": [
        {
          "internalType": "address[]",
          "name": "",
          "type": "address[]"
        }
      ],
      "stateMutability": "view",
      "type": "function"
    },
    {
      "inputs": [
        {
          "internalType": "uint256",
          "name": "idTitulo",
          "type": "uint256"
        },
        {
          "internalType": "address",
          "name": "detentor",
          "type": "address"
        },
        {
          "internalType": "uint256",
          "name": "quantidade",
          "type": "uint256"
        }
      ],
      "name": "emitirTitulo",
      "outputs": [],
      "stateMutability": "nonpayable",
      "type": "function"
    },
    {
      "inputs": [
        {
          "internalType": "address",
          "name": "detentor",
          "type": "address"
        },
        {
          "internalType": "uint256",
          "name": "idTitulo",
          "type": "uint256"
        }
      ],
      "name": "getQtdTitulosDetentor",
      "outputs": [
        {
          "internalType": "uint256",
          "name": "",
          "type": "uint256"
        }
      ],
      "stateMutability": "view",
      "type": "function"
    },
    {
      "inputs": [],
      "name": "depositarParaCompra",
      "outputs": [],
      "stateMutability": "payable",
      "type": "function"
    },
    {
      "inputs": [
        {
          "internalType": "address",
          "name": "detentorOrigem",
          "type": "address"
        },
        {
          "internalType": "address",
          "name": "detentorDestino",
          "type": "address"
        },
        {
          "internalType": "uint256",
          "name": "idTitulo",
          "type": "uint256"
        },
        {
          "internalType": "uint256",
          "name": "quantidade",
          "type": "uint256"
        },
        {
          "internalType": "uint256",
          "name": "valor",
          "type": "uint256"
        }
      ],
      "name": "compraSecundaria",
      "outputs": [],
      "stateMutability": "payable",
      "type": "function"
    }
  ],
  "bytecode": "0x608060405234801562000010575f80fd5b5060405162001c4338038062001c438339810160408190526200003391620001ab565b8083836003620000448382620002bc565b506004620000538282620002bc565b5050506001600160a01b0381166200008457604051631e4fbdf760e01b81525f600482015260240160405180910390fd5b6200008f8162000099565b5050505062000388565b600580546001600160a01b038381166001600160a01b0319831681179093556040519116919082907f8be0079c531659141344cd1fd0a4f28419497f9722a3daafe3b4186f6b6457e0905f90a35050565b634e487b7160e01b5f52604160045260245ffd5b5f82601f8301126200010e575f80fd5b81516001600160401b03808211156200012b576200012b620000ea565b604051601f8301601f19908116603f01168101908282118183101715620001565762000156620000ea565b816040528381526020925086602085880101111562000173575f80fd5b5f91505b8382101562000196578582018301518183018401529082019062000177565b5f602085830101528094505050505092915050565b5f805f60608486031215620001be575f80fd5b83516001600160401b0380821115620001d5575f80fd5b620001e387838801620000fe565b94506020860151915080821115620001f9575f80fd5b506200020886828701620000fe565b604086015190935090506001600160a01b038116811462000227575f80fd5b809150509250925092565b600181811c908216806200024757607f821691505b6020821081036200026657634e487b7160e01b5f52602260045260245ffd5b50919050565b601f821115620002b757805f5260205f20601f840160051c81016020851015620002935750805b601f840160051c820191505b81811015620002b4575f81556001016200029f565b50505b505050565b81516001600160401b03811115620002d857620002d8620000ea565b620002f081620002e9845462000232565b846200026c565b602080601f83116001811462000326575f84156200030e5750858301515b5f19600386901b1c1916600185901b17855562000380565b5f85815260208120601f198616915b82811015620003565788860151825594840194600190910190840162000335565b50858210156200037457878501515f19600388901b60f8161c191681555b505060018460011b0185555b505050505050565b6118ad80620003965f395ff3fe608060405260043610610161575f3560e01c806370a08231116100cd5780639ef620df11610087578063c700bad211610062578063c700bad21461046d578063cb84fa0f1461048c578063dd62ed3e146104ad578063f2fde38b146104f1575f80fd5b80639ef620df146103ee578063a3665ff81461042f578063a9059cbb1461044e575f80fd5b806370a08231146102ff578063715018a61461033357806384bc03ed146103475780638da5cb5b1461037557806395d89b411461039c5780639d3316d2146103b0575f80fd5b8063313ce5671161011e578063313ce5671461023d57806332079d3d1461025857806337a6abe114610277578063592048e11461027f578063664e62b9146102b55780636fb731d1146102e0575f80fd5b806306fdde0314610165578063095ea7b31461018f57806312d66f85146101be57806318160ddd146101d35780631c82321d146101f157806323b872dd1461021e575b5f80fd5b348015610170575f80fd5b50610179610510565b60405161018691906113f3565b60405180910390f35b34801561019a575f80fd5b506101ae6101a9366004611427565b6105a0565b6040519015158152602001610186565b6101d16101cc36600461144f565b6105b9565b005b3480156101de575f80fd5b506002545b604051908152602001610186565b3480156101fc575f80fd5b5061021061020b366004611498565b61085b565b6040516101869291906114af565b348015610229575f80fd5b506101ae6102383660046114cf565b6108fd565b348015610248575f80fd5b5060405160128152602001610186565b348015610263575f80fd5b506101d161027236600461151c565b610920565b6101d1610a1b565b34801561028a575f80fd5b506101e3610299366004611427565b600960209081525f928352604080842090915290825290205481565b3480156102c0575f80fd5b506101e36102cf3660046115d1565b600a6020525f908152604090205481565b3480156102eb575f80fd5b506101d16102fa3660046115ea565b610a8f565b34801561030a575f80fd5b506101e36103193660046115d1565b6001600160a01b03165f9081526020819052604090205490565b34801561033e575f80fd5b506101d1610ca6565b348015610352575f80fd5b506101ae6103613660046115d1565b60076020525f908152604090205460ff1681565b348015610380575f80fd5b506005546040516001600160a01b039091168152602001610186565b3480156103a7575f80fd5b50610179610cb9565b3480156103bb575f80fd5b506103cf6103ca366004611498565b610cc8565b604080516001600160a01b039093168352901515602083015201610186565b3480156103f9575f80fd5b506101e3610408366004611427565b6001600160a01b03919091165f908152600960209081526040808320938352929052205490565b34801561043a575f80fd5b50610210610449366004611498565b610cfb565b348015610459575f80fd5b506101ae610468366004611427565b610e40565b348015610478575f80fd5b506101d161048736600461160c565b610e4d565b348015610497575f80fd5b506104a0610f20565b6040516101869190611645565b3480156104b8575f80fd5b506101e36104c7366004611691565b6001600160a01b039182165f90815260016020908152604080832093909416825291909152205490565b3480156104fc575f80fd5b506101d161050b3660046115d1565b610fdb565b60606003805461051f906116c2565b80601f016020809104026020016040519081016040528092919081815260200182805461054b906116c2565b80156105965780601f1061056d57610100808354040283529160200191610596565b820191905f5260205f20905b81548152906001019060200180831161057957829003601f168201915b5050505050905090565b5f336105ad818585611018565b60019150505b92915050565b6005546001600160a01b0316331461063e5760405162461bcd60e51b815260206004820152603a60248201527f52656d6574656e7465206e616f2074656d207065726d697373616f206578656360448201527f75746172207472616e7361636f6573206e6f20746974756c6f2e00000000000060648201526084015b60405180910390fd5b6001600160a01b0385165f9081526009602090815260408083208684529091529020548211156106d65760405162461bcd60e51b815260206004820152603e60248201527f446574656e746f72206465206f726967656d206e616f20706f7373756920717560448201527f616e74696461646520737566696369656e746520646f20746974756c6f2e00006064820152608401610635565b6001600160a01b0384165f908152600a602052604090205481111561073d5760405162461bcd60e51b815260206004820152601f60248201527f53616c646f206465206465706f7369746f20696e737566696369656e74652e006044820152606401610635565b6001600160a01b0384165f908152600a60205260408120805483929061076490849061170e565b90915550506040516001600160a01b0386169082156108fc029083905f818181858888f1935050505015801561079c573d5f803e3d5ffd5b506001600160a01b0385165f908152600960209081526040808320868452909152812080548492906107cf90849061170e565b90915550506001600160a01b0384165f90815260096020908152604080832086845290915281208054849290610806908490611721565b909155505060408051848152602081018490526001600160a01b0380871692908816917f5a67944bd8785fabd1ccd32f126ec1c1d1ca8eadcade871d19a9ae51105fa6ac910160405180910390a35050505050565b60066020525f90815260409020805460018201805491929161087c906116c2565b80601f01602080910402602001604051908101604052809291908181526020018280546108a8906116c2565b80156108f35780601f106108ca576101008083540402835291602001916108f3565b820191905f5260205f20905b8154815290600101906020018083116108d657829003601f168201915b5050505050905082565b5f3361090a85828561102a565b6109158585856110a5565b506001949350505050565b610928611102565b5f8281526006602052604090206001018054610943906116c2565b1590506109a15760405162461bcd60e51b815260206004820152602660248201527f446574616c68657320646f20746974756c6f206a6120666f72616d20646566696044820152653734b237b99760d11b6064820152608401610635565b60408051808201825283815260208082018481525f86815260069092529290208151815591519091829160018201906109da908261177f565b50905050827ff86fb62db4ce46aeccc054ce61cfefe830249a73aac4f7ffd5ab4ab88e0af4f282604051610a0e919061183f565b60405180910390a2505050565b5f3411610a6a5760405162461bcd60e51b815260206004820152601c60248201527f4e656e68756d2076616c6f7220646520424e4220656e766961646f2e000000006044820152606401610635565b335f908152600a602052604081208054349290610a88908490611721565b9091555050565b335f9081526007602052604090205460ff16610b135760405162461bcd60e51b815260206004820152603760248201527f4170656e617320636172746569726173206175746f72697a6164617320706f6460448201527f656d20657865637574617220657374612066756e63616f0000000000000000006064820152608401610635565b5f838152600660205260408120549003610b645760405162461bcd60e51b81526020600482015260126024820152712a34ba3ab637903730b79032bc34b9ba329760711b6044820152606401610635565b5f8111610bb35760405162461bcd60e51b815260206004820181905260248201527f5175616e746964616465206465766520736572206d61696f722071756520302e6044820152606401610635565b335f9081526007602052604090205460ff16610c235760405162461bcd60e51b815260206004820152602960248201527f4361727465697261206e616f206175746f72697a616461206120656d69746972604482015268103a34ba3ab637b99760b91b6064820152608401610635565b6001600160a01b0382165f90815260096020908152604080832086845290915281208054839290610c55908490611721565b90915550610c659050828261112f565b60408051848152602081018390526001600160a01b038416917f3beb70d103ce9d08193b61acfca20b9524a30c73b46132c919ef1f2c33e1da019101610a0e565b610cae611102565b610cb75f611167565b565b60606004805461051f906116c2565b60088181548110610cd7575f80fd5b5f918252602090912001546001600160a01b0381169150600160a01b900460ff1682565b5f60605f60065f8581526020019081526020015f206040518060400160405290815f8201548152602001600182018054610d34906116c2565b80601f0160208091040260200160405190810160405280929190818152602001828054610d60906116c2565b8015610dab5780601f10610d8257610100808354040283529160200191610dab565b820191905f5260205f20905b815481529060010190602001808311610d8e57829003601f168201915b50505050508152505090505f815f015111610e2e5760405162461bcd60e51b815260206004820152603760248201527f446574616c686573206e616f20656e636f6e747261646f732070617261206f2060448201527f494420646520746974756c6f20666f726e656369646f2e0000000000000000006064820152608401610635565b80516020909101519094909350915050565b5f336105ad8185856110a5565b610e55611102565b6001600160a01b038281165f818152600760209081526040808320805460ff19168715159081179091558151808301835285815280840182815260088054600181018255965290517ff3f7a9fe364faab93b216da50a3214154f22a0a2b415b23a84c8169e8b636ee390950180549151959097166001600160a81b031990911617600160a01b941515949094029390931790945583519283528201527f94ce79ea43602c34b9ab458beaf7d61b07a577b9f145d7e74fbb139f37df5958910160405180910390a15050565b6008546060905f8167ffffffffffffffff811115610f4057610f40611508565b604051908082528060200260200182016040528015610f69578160200160208202803683370190505b5090505f5b82811015610fd45760088181548110610f8957610f89611863565b5f9182526020909120015482516001600160a01b0390911690839083908110610fb457610fb4611863565b6001600160a01b0390921660209283029190910190910152600101610f6e565b5092915050565b610fe3611102565b6001600160a01b03811661100c57604051631e4fbdf760e01b81525f6004820152602401610635565b61101581611167565b50565b61102583838360016111b8565b505050565b6001600160a01b038381165f908152600160209081526040808320938616835292905220545f19811461109f578181101561109157604051637dc7a0d960e11b81526001600160a01b03841660048201526024810182905260448101839052606401610635565b61109f84848484035f6111b8565b50505050565b6001600160a01b0383166110ce57604051634b637e8f60e11b81525f6004820152602401610635565b6001600160a01b0382166110f75760405163ec442f0560e01b81525f6004820152602401610635565b61102583838361128a565b6005546001600160a01b03163314610cb75760405163118cdaa760e01b8152336004820152602401610635565b6001600160a01b0382166111585760405163ec442f0560e01b81525f6004820152602401610635565b6111635f838361128a565b5050565b600580546001600160a01b038381166001600160a01b0319831681179093556040519116919082907f8be0079c531659141344cd1fd0a4f28419497f9722a3daafe3b4186f6b6457e0905f90a35050565b6001600160a01b0384166111e15760405163e602df0560e01b81525f6004820152602401610635565b6001600160a01b03831661120a57604051634a1406b160e11b81525f6004820152602401610635565b6001600160a01b038085165f908152600160209081526040808320938716835292905220829055801561109f57826001600160a01b0316846001600160a01b03167f8c5be1e5ebec7d5bd14f71427d1e84f3dd0314c0f7b2291e5b200ac8c7c3b9258460405161127c91815260200190565b60405180910390a350505050565b6001600160a01b0383166112b4578060025f8282546112a99190611721565b909155506113249050565b6001600160a01b0383165f90815260208190526040902054818110156113065760405163391434e360e21b81526001600160a01b03851660048201526024810182905260448101839052606401610635565b6001600160a01b0384165f9081526020819052604090209082900390555b6001600160a01b0382166113405760028054829003905561135e565b6001600160a01b0382165f9081526020819052604090208054820190555b816001600160a01b0316836001600160a01b03167fddf252ad1be2c89b69c2b068fc378daa952ba7f163c4a11628f55a4df523b3ef836040516113a391815260200190565b60405180910390a3505050565b5f81518084525f5b818110156113d4576020818501810151868301820152016113b8565b505f602082860101526020601f19601f83011685010191505092915050565b602081525f61140560208301846113b0565b9392505050565b80356001600160a01b0381168114611422575f80fd5b919050565b5f8060408385031215611438575f80fd5b6114418361140c565b946020939093013593505050565b5f805f805f60a08688031215611463575f80fd5b61146c8661140c565b945061147a6020870161140c565b94979496505050506040830135926060810135926080909101359150565b5f602082840312156114a8575f80fd5b5035919050565b828152604060208201525f6114c760408301846113b0565b949350505050565b5f805f606084860312156114e1575f80fd5b6114ea8461140c565b92506114f86020850161140c565b9150604084013590509250925092565b634e487b7160e01b5f52604160045260245ffd5b5f806040838503121561152d575f80fd5b82359150602083013567ffffffffffffffff8082111561154b575f80fd5b818501915085601f83011261155e575f80fd5b81358181111561157057611570611508565b604051601f8201601f19908116603f0116810190838211818310171561159857611598611508565b816040528281528860208487010111156115b0575f80fd5b826020860160208301375f6020848301015280955050505050509250929050565b5f602082840312156115e1575f80fd5b6114058261140c565b5f805f606084860312156115fc575f80fd5b833592506114f86020850161140c565b5f806040838503121561161d575f80fd5b6116268361140c565b91506020830135801515811461163a575f80fd5b809150509250929050565b602080825282518282018190525f9190848201906040850190845b818110156116855783516001600160a01b031683529284019291840191600101611660565b50909695505050505050565b5f80604083850312156116a2575f80fd5b6116ab8361140c565b91506116b96020840161140c565b90509250929050565b600181811c908216806116d657607f821691505b6020821081036116f457634e487b7160e01b5f52602260045260245ffd5b50919050565b634e487b7160e01b5f52601160045260245ffd5b818103818111156105b3576105b36116fa565b808201808211156105b3576105b36116fa565b601f82111561102557805f5260205f20601f840160051c810160208510156117595750805b601f840160051c820191505b81811015611778575f8155600101611765565b5050505050565b815167ffffffffffffffff81111561179957611799611508565b6117ad816117a784546116c2565b84611734565b602080601f8311600181146117e0575f84156117c95750858301515b5f19600386901b1c1916600185901b178555611837565b5f85815260208120601f198616915b8281101561180e578886015182559484019460019091019084016117ef565b508582101561182b57878501515f19600388901b60f8161c191681555b505060018460011b0185555b505050505050565b60208152815160208201525f60208301516040808401526114c760608401826113b0565b634e487b7160e01b5f52603260045260245ffdfea2646970667358221220f0d91b076d3d5a82f6fd6c2e3f0116cadf2782595ca1fd1b03c0c4617ba0708064736f6c63430008170033",
  "immutableReferences": {},
  "source": "// SPDX-License-Identifier: MIT\r\npragma solidity ^0.8.17;\r\n\r\nimport \"@openzeppelin/contracts/token/ERC20/ERC20.sol\";\r\nimport \"@openzeppelin/contracts/access/Ownable.sol\";\r\n\r\ncontract TesouroDireto is ERC20, Ownable {\r\n\r\n    \r\n    constructor(\r\n        string memory name, \r\n        string memory symbol, \r\n        address initialOwner\r\n        )\r\n        ERC20(name, symbol)\r\n        Ownable(initialOwner) /// Endereo do proprietrio do Contrato\r\n    {\r\n        \r\n    }\r\n\r\n/*****************************************************************************************************/\r\n/********* PARTE 1 - CHAINLINK\r\n\r\n\r\n/*****************************************************************************************************/\r\n/********* PARTE 2 - TTULO\r\n\r\n    /***************************************************/\r\n    /********* CRIAO DOS DETALHES TTULO *************/\r\n    /***************************************************/\r\n\r\n    // Estrutura para armazenar os detalhes de um ttulo\r\n    struct DetalhesTitulo {\r\n        uint256 idExterno; // ID interno autoincrementado para cada ttulo\r\n        string dados_titulo; // JSON com os dados do ttulo\r\n    }\r\n\r\n    // Evento para registrar na blockchain quando um novo ttulo  criado\r\n    event DetalhesTituloCriado(uint256 indexed idTitulo, DetalhesTitulo detalhes);\r\n\r\n    // Funo para criar um novo ttulo, restrita ao dono do contrato\r\n    function criarDetalhesTitulo(\r\n        uint256 idExterno,\r\n        string memory dados_titulo\r\n    ) public onlyOwner \r\n    {\r\n        \r\n        ///Aps criado os detalhes se torna imutavel\r\n        require(bytes(detalhesTitulos[idExterno].dados_titulo).length == 0, \"Detalhes do titulo ja foram definidos.\");\r\n\r\n        DetalhesTitulo memory novoTitulo = DetalhesTitulo({\r\n            idExterno: idExterno,\r\n            dados_titulo: dados_titulo\r\n        });\r\n\r\n        detalhesTitulos[idExterno] = novoTitulo;\r\n\r\n        emit DetalhesTituloCriado(idExterno, novoTitulo);\r\n    }\r\n\r\n\r\n\r\n    /****************************************************/\r\n    /********* DETALHES DE UM TTULO CRIADO *************/\r\n    /****************************************************/\r\n\r\n    // Mapeamento de um ID de ttulo para seus detalhes\r\n    mapping(uint256 => DetalhesTitulo) public detalhesTitulos;\r\n\r\n    // Funo para visualizar os detalhes de um ttulo por ID\r\n    function getDetalhesTituloCriado(uint256 idTitulo) public view returns (\r\n        uint256 idExterno,\r\n        string memory dados_titulo\r\n    ) {\r\n        \r\n        DetalhesTitulo memory titulo = detalhesTitulos[idTitulo];\r\n\r\n        require(titulo.idExterno > 0, \"Detalhes nao encontrados para o ID de titulo fornecido.\");\r\n\r\n        return (\r\n            titulo.idExterno,\r\n            titulo.dados_titulo\r\n        );\r\n    }\r\n\r\n\r\n\r\n/*****************************************************************************************************/\r\n/********* PARTE 3 - EMISSO\r\n\r\n\r\n    /**********************************************************************/\r\n    /********* LISTA DE CARTEIRAS AUTORIZADAS A EMITIR TTULO *************/\r\n    /**********************************************************************/\r\n\r\n    // Mapeamento que armazena se uma carteira est autorizada\r\n    mapping(address => bool) public carteirasAutorizadas;\r\n\r\n    // Modificador para usar lista de carteiras autorizadas\r\n    modifier onlyAuthorized() {\r\n        require(carteirasAutorizadas[msg.sender], \"Apenas carteiras autorizadas podem executar esta funcao\");\r\n        _; // Isso indica que o cdigo da funo chamada ser executado aps a verificao do modificador\r\n    }\r\n\r\n    // Estrutura para lista\r\n    struct CarteiraAutorizada {\r\n        address carteira;\r\n        bool autorizada;\r\n    }\r\n\r\n    // Array de structs para armazenar as carteiras autorizadas\r\n    CarteiraAutorizada[] public carteirasAutorizadasList;\r\n\r\n    // Evento para notificar quando uma carteira  adicionada  lista de autorizaes\r\n    event CarteiraAutorizadaAdicionada(address carteira, bool autorizada);\r\n\r\n    // Funo para adicionar ou remover endereos autorizados\r\n    function setCarteiraAutorizada(address carteira, bool autorizada) public onlyOwner {\r\n        carteirasAutorizadas[carteira] = autorizada;\r\n        carteirasAutorizadasList.push(CarteiraAutorizada(carteira, autorizada));\r\n        emit CarteiraAutorizadaAdicionada(carteira, autorizada);\r\n    }\r\n\r\n    // Funo para obter todas as carteiras autorizadas\r\n    function getEnderecosAutorizados() public view returns (address[] memory) {\r\n\r\n        uint256 length = carteirasAutorizadasList.length;\r\n        address[] memory enderecosAutorizados = new address[](length);\r\n\r\n        for (uint256 i = 0; i < length; i++) {\r\n            enderecosAutorizados[i] = carteirasAutorizadasList[i].carteira;\r\n        }\r\n\r\n        return enderecosAutorizados;\r\n\r\n    }\r\n\r\n\r\n    /***********************************************************/\r\n    /********* EMISSO DE TTULO PARA UM COMPRADOR *************/\r\n    /***********************************************************/\r\n    \r\n    // Evento emitido quando um ttulo  emitido para um detentor\r\n    event TituloEmitido(address indexed detentor, uint256 idTitulo, uint256 quantidade);\r\n\r\n    // Mapeamento do endereo do detentor para a lista de IDs de ttulos que ele possui\r\n    mapping(address => mapping(uint256 => uint256)) public titulosDetentor;\r\n\r\n    // Funo para emitir um ttulo j criado para um detentor especfico com quantidade e valor fracionado\r\n    function emitirTitulo(\r\n        uint256 idTitulo,\r\n        address detentor,\r\n        uint256 quantidade\r\n    ) public onlyAuthorized {\r\n\r\n        require(detalhesTitulos[idTitulo].idExterno != 0, \"Titulo nao existe.\");\r\n        require(quantidade > 0, \"Quantidade deve ser maior que 0.\");\r\n        require(carteirasAutorizadas[msg.sender], \"Carteira nao autorizada a emitir titulos.\");\r\n\r\n        // Adiciona a quantidade de ttulos ao registro do detentor\r\n        // Isso pode ser um novo mapeamento que associa o detentor e o ID do ttulo  quantidade detida\r\n        titulosDetentor[detentor][idTitulo] += quantidade;\r\n\r\n        //Enviar a quantidade para o detentor\r\n        _mint(detentor, quantidade);\r\n\r\n        emit TituloEmitido(detentor, idTitulo, quantidade);\r\n\r\n    }\r\n    \r\n\r\n    /******************************************************/\r\n    /********* QTD DE TTULOS DE UM DETENTOR **************/\r\n    /******************************************************/\r\n    \r\n    function getQtdTitulosDetentor(address detentor, uint256 idTitulo) public view returns (uint256) {\r\n        return titulosDetentor[detentor][idTitulo];\r\n    }\r\n\r\n\r\n/*****************************************************************************************************/\r\n/********* PARTE 4 - COMPRA MERCADO SECUNDRIO\r\n\r\n    /******************************************/\r\n    /********* DEPSITO ANTECIPADO ************/\r\n    /******************************************/\r\n    \r\n    // Mapeamento para rastrear depsitos de BNB\r\n    mapping(address => uint256) public depositos;\r\n\r\n    // Funo para o detentor de destino depositar BNB\r\n    function depositarParaCompra() public payable {\r\n        require(msg.value > 0, \"Nenhum valor de BNB enviado.\");\r\n        depositos[msg.sender] += msg.value;\r\n    }\r\n\r\n\r\n    /******************************************/\r\n    /********* TRANSFERIR TTULO **************/\r\n    /******************************************/\r\n    \r\n\r\n    function compraSecundaria(\r\n    address detentorOrigem,\r\n    address detentorDestino,\r\n    uint256 idTitulo,\r\n    uint256 quantidade,\r\n    uint256 valor\r\n    ) public payable {\r\n        \r\n        // Verifica se o remetente da mensagem  o proprietrio do contrato\r\n        require(msg.sender == owner(), \"Remetente nao tem permissao executar transacoes no titulo.\");\r\n\r\n        // Verifica se o detentor de origem possui quantidade suficiente do ttulo\r\n        require(titulosDetentor[detentorOrigem][idTitulo] >= quantidade, \"Detentor de origem nao possui quantidade suficiente do titulo.\");\r\n\r\n        // Verifica se o detentor de destino depositou BNB suficiente\r\n        require(depositos[detentorDestino] >= valor, \"Saldo de deposito insuficiente.\");\r\n\r\n        // Atualiza o saldo de depsito do detentor de destino\r\n        depositos[detentorDestino] -= valor;\r\n\r\n        // Transferir BNB para o detentor de origem\r\n        payable(detentorOrigem).transfer(valor);\r\n\r\n        // Verificar se o detentor de destino tem CPF no gov.br\r\n        // API CHECAR GOV.BR\r\n\r\n        // Liquidez, como resolver?\r\n\r\n        // Atualiza o saldo de ttulos dos detentores\r\n        titulosDetentor[detentorOrigem][idTitulo] -= quantidade;\r\n        titulosDetentor[detentorDestino][idTitulo] += quantidade;\r\n\r\n        // Emitir evento de transferncia\r\n        emit TituloTransferido(detentorOrigem, detentorDestino, idTitulo, quantidade);\r\n    }\r\n\r\n    // Evento para registrar a transferncia de ttulos\r\n    event TituloTransferido(address indexed detentorOrigem, address indexed detentorDestino, uint256 idTitulo, uint256 quantidade);\r\n\r\n\r\n\r\n    /*\r\n    function transferirTitulo(\r\n    address detentorOrigem,\r\n    address detentorDestino,\r\n    uint256 idTitulo,\r\n    uint256 quantidade\r\n    ) public {\r\n        \r\n        require(msg.sender == detentorOrigem || msg.sender == owner(), \"Remetente nao tem permissao para transferir o titulo.\");\r\n\r\n        ///Colocar API para checar CPF.\r\n        titulosDetentor[detentorOrigem][idTitulo] -= quantidade;\r\n        titulosDetentor[detentorDestino][idTitulo] += quantidade;\r\n\r\n        // Emitir evento de transferncia (opcional, mas recomendado)\r\n        emit TituloTransferido(detentorOrigem, detentorDestino, idTitulo, quantidade);\r\n    }\r\n\r\n    // Evento para registrar a transferncia de ttulos\r\n    event TituloTransferido(address indexed detentorOrigem, address indexed detentorDestino, uint256 idTitulo, uint256 quantidade);\r\n    \r\n*/\r\n    \r\n\r\n    /******************************************/\r\n    /********* RESGATAR TTULO **************/\r\n    /******************************************/\r\n    /*\r\n    function resgatarTitulo(uint256 idTitulo) public {\r\n\r\n        DetalhesTitulo storage titulo = detalhesTitulos[idTitulo];\r\n\r\n        require(titulo.id != 0, \"Titulo nao existe.\");\r\n        //require(block.timestamp >= titulo.dataVencimento, \"Titulo ainda nao venceu.\");\r\n        \r\n        uint256 quantidadeDetentor = titulosDetentor[msg.sender][idTitulo];\r\n        require(quantidadeDetentor > 0, \"Detentor nao possui titulos deste tipo.\");\r\n\r\n        // Calcula o valor total a ser pago com base na rentabilidade anual e no valor nominal\r\n        uint256 valorTotalPago = (quantidadeDetentor * titulo.valorNominal * (10000 + titulo.rentabilidadeAnual)) / 10000;\r\n\r\n        // Recolhe os ttulos da carteira do detentor\r\n        titulosDetentor[msg.sender][idTitulo] = 0;\r\n\r\n        // Envia BNB ao detentor (assumindo que o contrato tem saldo suficiente)\r\n        payable(msg.sender).transfer(valorTotalPago);\r\n\r\n        // Emitir evento de resgate do ttulo\r\n        emit TituloResgatado(idTitulo, msg.sender, quantidadeDetentor, valorTotalPago);\r\n\r\n        // Remove o ttulo da lista de ttulos ativos se todos foram resgatados\r\n        if (getQuantidadeTitulos(msg.sender, idTitulo) == 0) {\r\n            delete detalhesTitulos[idTitulo];\r\n        }\r\n\r\n    }\r\n\r\n    // Evento emitido quando um ttulo  resgatado e o pagamento  feito\r\n    event TituloResgatado(uint256 indexed idTitulo, address indexed detentor, uint256 quantidade, uint256 valorPago);\r\n    */\r\n}\r\n",
  "sourcePath": "C:\\laragon\\www\\hackathon-tesouro-nacional\\contracts\\TesouroDireto.sol",
  "compiler": {
    "name": "solc",
    "version": "0.8.23+commit.f704f362.Emscripten.clang"
  },
  "schemaVersion": "3.4.16",
  "updatedAt": "2023-11-23T04:37:43.944Z",
  "devdoc": {
    "errors": {
      "ERC20InsufficientAllowance(address,uint256,uint256)": [
        {
          "details": "Indicates a failure with the `spender`s `allowance`. Used in transfers.",
          "params": {
            "allowance": "Amount of tokens a `spender` is allowed to operate with.",
            "needed": "Minimum amount required to perform a transfer.",
            "spender": "Address that may be allowed to operate on tokens without being their owner."
          }
        }
      ],
      "ERC20InsufficientBalance(address,uint256,uint256)": [
        {
          "details": "Indicates an error related to the current `balance` of a `sender`. Used in transfers.",
          "params": {
            "balance": "Current balance for the interacting account.",
            "needed": "Minimum amount required to perform a transfer.",
            "sender": "Address whose tokens are being transferred."
          }
        }
      ],
      "ERC20InvalidApprover(address)": [
        {
          "details": "Indicates a failure with the `approver` of a token to be approved. Used in approvals.",
          "params": {
            "approver": "Address initiating an approval operation."
          }
        }
      ],
      "ERC20InvalidReceiver(address)": [
        {
          "details": "Indicates a failure with the token `receiver`. Used in transfers.",
          "params": {
            "receiver": "Address to which tokens are being transferred."
          }
        }
      ],
      "ERC20InvalidSender(address)": [
        {
          "details": "Indicates a failure with the token `sender`. Used in transfers.",
          "params": {
            "sender": "Address whose tokens are being transferred."
          }
        }
      ],
      "ERC20InvalidSpender(address)": [
        {
          "details": "Indicates a failure with the `spender` to be approved. Used in approvals.",
          "params": {
            "spender": "Address that may be allowed to operate on tokens without being their owner."
          }
        }
      ],
      "OwnableInvalidOwner(address)": [
        {
          "details": "The owner is not a valid owner account. (eg. `address(0)`)"
        }
      ],
      "OwnableUnauthorizedAccount(address)": [
        {
          "details": "The caller account is not authorized to perform an operation."
        }
      ]
    },
    "events": {
      "Approval(address,address,uint256)": {
        "details": "Emitted when the allowance of a `spender` for an `owner` is set by a call to {approve}. `value` is the new allowance."
      },
      "Transfer(address,address,uint256)": {
        "details": "Emitted when `value` tokens are moved from one account (`from`) to another (`to`). Note that `value` may be zero."
      }
    },
    "kind": "dev",
    "methods": {
      "allowance(address,address)": {
        "details": "See {IERC20-allowance}."
      },
      "approve(address,uint256)": {
        "details": "See {IERC20-approve}. NOTE: If `value` is the maximum `uint256`, the allowance is not updated on `transferFrom`. This is semantically equivalent to an infinite approval. Requirements: - `spender` cannot be the zero address."
      },
      "balanceOf(address)": {
        "details": "See {IERC20-balanceOf}."
      },
      "decimals()": {
        "details": "Returns the number of decimals used to get its user representation. For example, if `decimals` equals `2`, a balance of `505` tokens should be displayed to a user as `5.05` (`505 / 10 ** 2`). Tokens usually opt for a value of 18, imitating the relationship between Ether and Wei. This is the default value returned by this function, unless it's overridden. NOTE: This information is only used for _display_ purposes: it in no way affects any of the arithmetic of the contract, including {IERC20-balanceOf} and {IERC20-transfer}."
      },
      "name()": {
        "details": "Returns the name of the token."
      },
      "owner()": {
        "details": "Returns the address of the current owner."
      },
      "renounceOwnership()": {
        "details": "Leaves the contract without owner. It will not be possible to call `onlyOwner` functions. Can only be called by the current owner. NOTE: Renouncing ownership will leave the contract without an owner, thereby disabling any functionality that is only available to the owner."
      },
      "symbol()": {
        "details": "Returns the symbol of the token, usually a shorter version of the name."
      },
      "totalSupply()": {
        "details": "See {IERC20-totalSupply}."
      },
      "transfer(address,uint256)": {
        "details": "See {IERC20-transfer}. Requirements: - `to` cannot be the zero address. - the caller must have a balance of at least `value`."
      },
      "transferFrom(address,address,uint256)": {
        "details": "See {IERC20-transferFrom}. Emits an {Approval} event indicating the updated allowance. This is not required by the EIP. See the note at the beginning of {ERC20}. NOTE: Does not update the allowance if the current allowance is the maximum `uint256`. Requirements: - `from` and `to` cannot be the zero address. - `from` must have a balance of at least `value`. - the caller must have allowance for ``from``'s tokens of at least `value`."
      },
      "transferOwnership(address)": {
        "details": "Transfers ownership of the contract to a new account (`newOwner`). Can only be called by the current owner."
      }
    },
    "version": 1
  },
  "userdoc": {
    "kind": "user",
    "methods": {},
    "version": 1
  }
}